:0300000002017C7E
:0100030032CA
:03000B00020124CB
:0100130032BA
:01001B0032B2
:0100230032AA
:03002B000201418E
:10002E00C00078B10000D8FCD00022C000C0017919
:10003E002D78A6D8FED9FADAF6D001D00022D296C3
:10004E0012002EC29622A2E792B5A2E692B4A2E5C3
:10005E0092B3A2E492B212004C12002EA2E392B519
:10006E00A2E292B4A2E192B3A2E092B212004C22AA
:10007E00D294020054C294020054C296C2957433B4
:10008E0012008374331200837432120083742812A8
:10009E000083740C1200837401120083C0027A0272
:1000AE00120039D00222E493600612007EA380F67D
:1000BE002244404480020083C0E0E8C4540F443020
:1000CE0012007EE8540F443012007ED0E022202031
:1000DE0020202020202020202020202020200078DA
:1000EE00783A78783A7878787800616D00706D009B
:1000FE00307863350072656164792100E58954F0CA
:10010E004401F589758CEA758AE8E4F530F531D24B
:10011E00A9D28CD2AF22C28C758CEA758AFCD28C95
:10012E00B2B73275C80075CBA975CA9AD2ADD2CA0C
:10013E00D2AF22C2CFB2B6C0E0C0D00530E530702B
:10014E00020531E530B4E821E531B4031CD200B22A
:10015E008EE4F530F531E533308004240180072438
:10016E0099B499027459D4F533D0D0D0E032758158
:10017E007F75C10012010A1201311200881204E8C3
:10018E00C0E07401141200C1D0E0C083C082C0E090
:10019E009000DC1200B4D0E0D082D083D200753350
:1001AE0000753459753512750100753A05753B5950
:1001BE00753C12750300C0E07401141200BFD0E04C
:1001CE00C083C082C0E09000ED1200B4D0E0D082B7
:1001DE00D083C0E07407141200C1D0E0C000A83A6A
:1001EE001200C6D000C0E07401141200C1D0E0C0ED
:1001FE0000A83C1200C6D000C0E07404141200C166
:10020E00D0E0C000A83B1200C6D000C0E0740914B4
:10021E001200C1D0E0C000A8031200C6D00030A466
:10022E004B30A54BE50195037018E535953C7012E2
:10023E00E534953B700CE533953A700602053E02A7
:10024E0001E020C51DC0027A32120039D00220C54D
:10025E001130C5FDC28CE4F530F531753300D28C0A
:10026E0080033000DAC2001207B080060202990243
:10027E000294F5011207B00201E00204BA0204D1A1
:10028E0002043E0203C430A5FD800330A4FD753682
:10029E000085010285353985343885333730A30C16
:1002AE00C0027A32120039D00230A3CE20A20CC086
:1002BE00027A32120039D00230A2C220A10CC00242
:1002CE007A32120039D00230A1B620A00CC0027AC8
:1002DE0032120039D00230A0AAC0E0740414120009
:1002EE00BFD0E0C000A8381200C6D000C0E0740134
:1002FE00141200BFD0E0C000A8391200C6D000C052
:10030E00E07407141200BFD0E0C000A8371200C678
:10031E00D000C0E07401141200C1D0E0C083C082CE
:10032E00C0E09000DC1200B4D0E0D082D083E5367D
:10033E00B4000474808012B401047483800BB40280
:10034E000474868004748880001200837400120086
:10035E007E30A40630A5310202AB30A4FD85020129
:10036E00853935853834853733C0E0740114120071
:10037E00C1D0E0C083C082C0E09000DC1200B4D0D7
:10038E00E0D082D0830201E030A5FD8502038539DD
:10039E003C85383B85373AC0E07401141200C1D059
:1003AE00E0C083C082C0E09000DC1200B4D0E0D088
:1003BE0082D0830201E030A0FDE536B40016E539A7
:1003CE00B412077401F5390202ABE5392401D4F5F4
:1003DE00390202ABE536B40116E538B4590774009C
:1003EE00F5380202ABE5382401D4F5380202ABE54C
:1003FE0036B40217E537B459087400D4F537020243
:10040E00ABE5372401D4F5370202AB020492750234
:10041E0001C0E07409141200BFD0E0C083C082C0D6
:10042E00E09000F81200B4D0E0D082D0830202AB8C
:10043E0030A1FDE536B40018E539B4000675391261
:10044E000202ABE5392499D4F5390202AB02041C41
:10045E00E536B40115E538B400067538590202AB1D
:10046E00E5382499D4F5380202ABE536B40215E529
:10047E0037B400067537590202ABE5372499D4F527
:10048E00370202ABE502B401C47400F502C0E07499
:10049E0009141200BFD0E0C083C082C0E09000FB00
:1004AE001200B4D0E0D082D0830202AB30A3FDE5BF
:1004BE0036B403067536000202ABE5362401F53676
:1004CE000202AB30A2FDE536B40006753603020219
:1004DE00ABE5369401F5360202AB7440120083741C
:1004EE000012007E740412007E740412007E7404E6
:1004FE0012007E741512007E740E12007E740412A9
:10050E00007E740012007E740012007E74041200CD
:10051E007E740E12007E741512007E740412007E1C
:10052E00740412007E740412007E740012007E2287
:10053E001205A1C0E07401141200BFD0E0C083C048
:10054E0082C0E09000DC1200B4D0E0D082D083C034
:10055E00E07401141200C1D0E0C083C082C0E090EC
:10056E0000DC1200B4D0E0D082D08312085B1208F7
:10057E0064C0E07401141200BFD0E0C083C082C01A
:10058E00E09000DC1200B4D0E0D082D08312068658
:10059E000201E01207B012079DC0027A3212003932
:1005AE00D0021207B012079DC0027A32120039D063
:1005BE00021207B012079DC0027A32120039D00221
:1005CE001207B012074AC0027A32120039D0021254
:1005DE0007B012079DC0027A32120039D0021207FC
:1005EE00B012078AC0027A32120039D0021207B056
:1005FE0012073BC0027A32120039D0021207B01233
:10060E00074AC0027A32120039D0021207B012071E
:10061E003BC0027A32120039D0021207B012072DF7
:10062E00C0027A32120039D0021207B012075DC032
:10063E00027A32120039D0021207B012076CC002D1
:10064E007A32120039D0021207B012077BC0027A3A
:10065E0032120039D0021207B012075DC0027A3290
:10066E00120039D0021207B0C0027A32120039D00D
:10067E000212073B1207B02212079DC0027A3212F5
:10068E000039D00212079DC0027A32120039D00210
:10069E0012079D741812008312074AC0027A321292
:1006AE000039D00212079DC0027A32120039D002F0
:1006BE0012078AC0027A32120039D00212073B7436
:1006CE001812008312074AC0027A32120039D00281
:1006DE0012073BC0027A32120039D00212072DC027
:1006EE00027A32120039D00212075D74181200839A
:1006FE0012076CC0027A32120039D00212077BC088
:10070E00027A32120039D00212075DC0027A32121A
:10071E000039D00212073B74181200830206867A43
:10072E00A67943B2A678A6D8FED9FADAF47A427937
:10073E0038B2A678A6D8FED9FADAF4227B027A83EA
:10074E00792AB2A678A6D8FED9FADAF4DBF0227AA4
:10075E00DC7932B2A678A6D8FED9FADAF4227AF685
:10076E00792DB2A678A6D8FED9FADAF4227AEA79E9
:10077E002FB2A678A6D8FED9FADAF4227B027AA591
:10078E00791CB2A678A6D8FED9FADAF4DBF0227B71
:10079E00027AA57921B2A678A6D8FED9FADAF4DBC8
:1007AE00F02212082CC0E07407141200BFD0E0C073
:1007BE0000A8331200C6D000C0E07404141200BFAB
:1007CE00D0E0C000A8341200C6D000C0E0740114FE
:1007DE001200BFD0E0C000A8351200C6D000C0E0A5
:1007EE007409141200BFD0E0E5017013C083C082FB
:1007FE00C0E09000FB1200B4D0E0D082D08322C0C3
:10080E00E07409141200BFD0E0C083C082C0E09033
:10081E0000F81200B4D0E0D082D0830201E0E533BC
:10082E00B46029753300E5342401D4F534B4601C6A
:10083E00753400E5352401D4F535B41206E50170A2
:10084E00087401B4130675350174002222E5337560
:10085E00F00484E5F022B40003020903B40103029C
:10086E000990B40203020A1DC083C082C0E090004A
:10087E00DC1200B4D0E0D082D083C0027A321200F3
:10088E0039D002C0E07401141200C1D0E0C083C0A0
:10089E0082C0E09001031200B4D0E0D082D083C0B9
:1008AE00027AFA120039D002C0027AFA120039D056
:1008BE0002C0E07401141200C1D0E0C083C082C037
:1008CE00E09000DC1200B4D0E0D082D083C0027A77
:1008DE0032120039D0027484120083747E12007EAC
:1008EE00740012007E740112007E747F12007E74FA
:1008FE000112007E22C083C082C0E09000DC120094
:10090E00B4D0E0D082D083C0027A32120039D00245
:10091E00C0E07401141200C1D0E0C083C082C0E0F8
:10092E009001031200B4D0E0D082D083C0027AFAD4
:10093E00120039D002C0027AFA120039D002C0E099
:10094E007401141200C1D0E0C083C082C0E09000D8
:10095E00DC1200B4D0E0D082D083C0027A32120012
:10096E0039D0027484120083740012007E74001257
:10097E00007E740112007E747E12007E747F12005F
:10098E007E22C083C082C0E09000DC1200B4D0E0B2
:10099E00D082D083C0027A32120039D002C0E07405
:1009AE0001141200C1D0E0C083C082C0E0900103E8
:1009BE001200B4D0E0D082D083C0027AFA1200398D
:1009CE00D002C0027AFA120039D002C0E0740114CB
:1009DE001200C1D0E0C083C082C0E09000DC1200E3
:1009EE00B4D0E0D082D083C0027A32120039D00265
:1009FE007484120083740112007E740112007E74DE
:100A0E007E12007E740012007E747F12007E22C061
:100A1E0083C082C0E09000DC1200B4D0E0D082D05F
:100A2E0083C0027A32120039D002C0E0740114126F
:100A3E0000C1D0E0C083C082C0E09001031200B4B8
:100A4E00D0E0D082D083C0027AFA120039D002C030
:100A5E00027AFA120039D002C0E07401141200C1F9
:100A6E00D0E0C083C082C0E09000DC1200B4D0E0C1
:100A7E00D082D083C0027A32120039D0027484122E
:100A8E000083747F12007E740012007E74011200C7
:100A9E007E747E12007E740012007E2212079DC0AC
:100AAE00027A32120039D00212079DC0027A321237
:100ABE000039D00212079D741812008312074AC023
:100ACE00027A32120039D00212079DC0027A321217
:100ADE000039D00212078AC0027A32120039D002CF
:100AEE0012073B741812008312074AC0027A3212A0
:100AFE000039D00212073BC0027A32120039D002FE
:100B0E0012072DC0027A32120039D00212075D741C
:100B1E001812008312076CC0027A32120039D0020A
:100B2E0012077BC0027A32120039D00212075DC062
:100B3E00027A32120039D00212073B741812008367
:100B4E0012079DC0027A32120039D00212079DC0E0
:100B5E00027A32120039D00212079D7418120083E5
:100B6E0012074AC0027A32120039D00212079DC013
:100B7E00027A32120039D00212078AC0027A321279
:100B8E000039D00212073B741812008312074AC0B4
:100B9E00027A32120039D00212073BC0027A3212A8
:100BAE000039D00212072DC0027A32120039D0025B
:100BBE0012075D741812008312076CC0027A32128B
:100BCE000039D00212077BC0027A32120039D002ED
:100BDE0012075DC0027A32120039D00212073B743E
:070BEE0018120083020686C5
:00000001FF
