:03000000020219E0
:0100030032CA
:03000B0002011FD0
:0100130032BA
:01001B0032B2
:0100230032AA
:03002B000201418E
:10002E00C00078B10000D8FCD00022C000C0017919
:10003E002D78A6D8FED9FADAF6D001D00022D296C3
:10004E0012002EC29622A2E792B5A2E692B4A2E5C3
:10005E0092B3A2E492B212004C12002EA2E392B519
:10006E00A2E292B4A2E192B3A2E092B212004C22AA
:10007E00D294020054C294020054C296C2957433B4
:10008E0012008374331200837432120083742812A8
:10009E000083740C1200837401120083C0027A0272
:1000AE00120039D00222E493600612007EA380F67D
:1000BE002244404480020083C0E0E8C4540F443020
:1000CE0012007EE8540F443012007ED0E022202031
:1000DE0020202020202020202020202020200078DA
:1000EE00783A78783A7878787800616D00706D009B
:1000FE00307863350072656164792100E58954F0CA
:10010E004401F589758CEA758AE8D2A9D28CD2AFF2
:10011E0022C28C758CEA758AFCD28CB2B73275C845
:10012E000075CBA975CA9AE4F530F531D2ADD2CAB5
:10013E00D2AF22C2CFB2B6C0E0C0D00530E530702B
:10014E00020531E530B46414E531B4000FD200B2CB
:10015E008EE4F530F531E53324018003020214D428
:10016E00F533E533B46028753300E5342401D4F556
:10017E0034B4601B753400E5352401D4F535B41262
:10018E000EE50170087401B413057535017400C0D5
:10019E00E07407141200BFD0E0C000A8331200C6EE
:1001AE00D000C0E07404141200BFD0E0C000A83428
:1001BE001200C6D000C0E07401141200BFD0E0C01F
:1001CE0000A8351200C6D000C0E07409141200BF9A
:1001DE00D0E0E5017014C083C082C0E09000FB1235
:1001EE0000B4D0E0D082D083801CC0E07409141219
:1001FE0000BFD0E0C083C082C0E09000F81200B40F
:10020E00D0E0D082D083D0D0D0E03275817F75C15E
:10021E000012010A12012C12008812030CC0E074A5
:10022E0001141200C1D0E0C083C082C0E09000DC97
:10023E001200B4D0E0D082D083D200753300753472
:10024E0059753512750100753A05753B59753C1295
:10025E00750300C0E07401141200BFD0E0C083C06B
:10026E0082C0E09000ED1200B4D0E0D082D083C006
:10027E00E07407141200C1D0E0C000A83A1200C604
:10028E00D000C0E07401141200C1D0E0C000A83C40
:10029E001200C6D000C0E07404141200C1D0E0C039
:1002AE0000A83B1200C6D000C0E07409141200C1B1
:1002BE00D0E0C000A8031200C6D00020C51DC002A9
:1002CE007A32120039D00220C51130C5FDC28CE43D
:1002DE00F530F531753200D28C8003300091C200BA
:1002EE00E50195037089E535953C7083E534953BC2
:1002FE007009E533953A700312036202027D744071
:10030E00120083740012007E740412007E740412B4
:10031E00007E740412007E741512007E740E12009C
:10032E007E740412007E740012007E740012007E31
:10033E00740412007E740E12007E741512007E7408
:10034E000412007E740412007E740412007E740087
:10035E0012007E22120487C0027A32120039D002B5
:10036E00120487C0027A32120039D002120487C0FA
:10037E00027A32120039D002120434C0027A3212DA
:10038E000039D002120487C0027A32120039D0022C
:10039E00120474C0027A32120039D002120425C03F
:1003AE00027A32120039D002120434C0027A3212AA
:1003BE000039D002120425C0027A32120039D0025E
:1003CE00120417C0027A32120039D002120447C04A
:1003DE00027A32120039D002120456C0027A321258
:1003EE000039D002120465C0027A32120039D002EE
:1003FE00120447C0027A32120039D002120425C00C
:10040E00027A32120039D002227AA67943B2A67845
:10041E00A6D8FED9FADAF47A427938B2A678A6D8F6
:10042E00FED9FADAF4227B027A83792AB2A678A66A
:10043E00D8FED9FADAF4DBF0227ADC7932B2A67879
:10044E00A6D8FED9FADAF4227AF6792DB2A678A6D3
:10045E00D8FED9FADAF4227AEA792FB2A678A6D89B
:10046E00FED9FADAF4227B027AA5791CB2A678A616
:10047E00D8FED9FADAF4DBF0227B027AA57921B222
:0C048E00A678A6D8FED9FADAF4DBF0223A
:00000001FF
