:0300000002029069
:0100030032CA
:03000B0002011FD0
:0100130032BA
:03001B0002015F80
:0100230032AA
:03002B0002022EA0
:10002E00C00078B10000D8FCD00022C000C0017919
:10003E002D78A6D8FED9FADAF6D001D00022D296C3
:10004E0012002EC29622A2E792B5A2E692B4A2E5C3
:10005E0092B3A2E492B212004C12002EA2E392B519
:10006E00A2E292B4A2E192B3A2E092B212004C22AA
:10007E00D294020054C294020054C296C2957433B4
:10008E0012008374331200837432120083742812A8
:10009E000083740C1200837401120083C0027A0272
:1000AE00120039D00222E493600612007EA380F67D
:1000BE002244404480020083C0E0E8C4540F443020
:1000CE0012007EE8540F443012007ED0E022202031
:1000DE0020202020202020202020202020200078DA
:1000EE00783A78783A7878787800616D00706D009B
:1000FE00307863350072656164792100E58954F0CA
:10010E004401F589758CEA758AE8D2A9D28CD2AFF2
:10011E0022C28C758CEA758AFCD28CB2B732E58914
:10012E0054F04401F589758DA9758B9AD2ABD28E98
:10013E00D2AF22C0E07409141200C1D0E0C083C057
:10014E0082C0E09000F81200B4D0E0D082D083805C
:10015E0053C0E0C0D0C0E07401141200C1D0E0C0A2
:10016E0083C082C0E09000ED1200B4D0E0D082D007
:10017E0083E50370BEC0E07409141200C1D0E0C064
:10018E0000A8031200C6D000C0E07409141200C10A
:10019E00D0E0C083C082C0E09000FB1200B4D0E07B
:1001AE00D082D083C0E07407141200C1D0E0C0002A
:1001BE00A83A1200C6D000C0E07401141200C1D0DB
:1001CE00E0C000A83C1200C6D000C0E074041412B7
:1001DE0000C1D0E0C000A83B1200C6D000E501C0AF
:1001EE00E0740B141200C1D0E095037019E535953B
:1001FE003C7013E534953B700DE533953A700774FA
:10020E0000F53E020371D0D0D0E03275C80075CB38
:10021E00A975CA9AE4F530F531D2ADD2CAD2AF2261
:10022E00C2CFB2B6C0E0C0D00530E53070020531A5
:10023E00E530B4E814E531B4030FD200B28EE4F524
:10024E0030F531E5332401800302028BD4F533E51A
:10025E0033B46029753300E5342401D4F534B46029
:10026E001C753400E5352401D4F535B41207E501CB
:10027E007009750101B413037535017400D0D0D027
:10028E00E03275817F75C10012010A120219120047
:10029E008812031B753300753459753512750100BC
:1002AE00753A05753B59753C12750300C0E0740133
:1002BE00141200BFD0E0C083C082C0E09000ED12E7
:1002CE0000B4D0E0D082D083D20075320030A42C9E
:1002DE0030A52C20C52CC0027A32120039D0022053
:1002EE00C52030C5FDC28CE4F530F531753300758F
:1002FE003459753512750100D28C80090208A90295
:10030E0008A43000C8C200120B080202DB744012AF
:10031E000083740012007E740412007E74041200B6
:10032E007E740412007E741512007E740E12007E0E
:10033E00740412007E740012007E740012007E742B
:10034E000412007E740E12007E741512007E740468
:10035E0012007E740412007E740412007E74001269
:10036E00007E22E53E2401F53EC0E0740F1412001B
:10037E00C1D0E0C000A83E1200C6D000C0027A96DE
:10038E00120039D0021206907400F53DC0E07401DF
:10039E00141200BFD0E0C083C082C0E09000DC1217
:1003AE0000B4D0E0D082D083C0E07401141200C13A
:1003BE00D0E0C083C082C0E09000DC1200B4D0E078
:1003CE00D082D083C0027A96120039D002120B9CD2
:1003DE000204237403B53D030202147404B53D03F5
:1003EE000202147405B53D03020214C0E0740F142A
:1003FE001200BFD0E0C000A83D1200C6D000C0025F
:10040E007A96120039D0027403B53E030207A80291
:10041E0003710207A8120891C0027A32120039D075
:10042E0002120891C0027A32120039D002120891DB
:10043E00741812008312083EC0027A32120039D0AC
:10044E0002120891C0027A32120039D00212087ECE
:10045E00C0027A32120039D00212082F741812001C
:10046E008312083EC0027A32120039D00212082FCF
:10047E00C0027A32120039D002120821C0027A323A
:10048E00120039D00212085174181200831208603B
:10049E00C0027A32120039D00212086FC0027A32CC
:1004AE00120039D002120851C0027A32120039D02D
:1004BE000212082F74181200830204D0020772026F
:1004CE00077BC0027A32120039D002120891C002A4
:1004DE007A32120039D00212089120A10CC0027A91
:1004EE0032120039D00230A1D3120891C0027A32F2
:1004FE00120039D00212083EC0027A32120039D0F0
:10050E00027418120083C0027A32120039D002121D
:10051E000891C0027A32120039D00212087E20A150
:10052E000CC0027A32120039D00230A19212082F7A
:10053E00C0027A32120039D00212083EC0027A325C
:10054E00120039D0027418120083C0027A321200DF
:10055E0039D002800602078402078D12082FC002CE
:10056E007A32120039D00212082120A00CC0027A71
:10057E0032120039D00230A0DC120851C0027A3299
:10058E00120039D002120860C0027A32120039D03D
:10059E00027418120083C0027A32120039D002128D
:1005AE00086FC0027A32120039D002120851C0020E
:1005BE007A32120039D00212082F20A30CC0027A10
:1005CE0032120039D00230A38F120891C0027A3253
:1005DE00120039D002C0027A32120039D0027418D9
:1005EE00120083120891C0027A32120039D0021220
:1005FE000891C0027A32120039D00212083EC002AF
:10060E007A32120039D00220A215C0027A321200BC
:10061E0039D002C0027A32120039D00230A23C1216
:10062E00082FC0027A32120039D002120821C002FD
:10063E007A32120039D002120851C0027A321200F8
:10064E0039D002120860C0027A32120039D0027913
:10065E00207418120083D9F90203E1C0027A321213
:10066E000039D002C0027A32120039D002C0027AAA
:10067E0032120039D002C0027A32120039D0020290
:10068E000796120891C0027A32120039D002120B6C
:10069E0008120891C0027A32120039D002120B08E9
:1006AE00120891C0027A32120039D002120B0812CF
:1006BE00083EC0027A32120039D002120B0812081C
:1006CE0091C0027A32120039D002120B0812087E43
:1006DE00C0027A32120039D002120B0812082FC053
:1006EE00027A32120039D002120B0812083EC002F2
:1006FE007A32120039D002120B0812082FC0027A79
:10070E0032120039D002120B08120821C0027A32BE
:10071E00120039D002120B08120851C0027A32129E
:10072E000039D002120B08120860C0027A32120091
:10073E0039D002120B0812086FC0027A3212003939
:10074E00D002120B08120851C0027A32120039D0B0
:10075E0002120B0812082FC0027A32120039D00290
:10076E00120B0822E53D2401F53D0204F7E53D2478
:10077E0001F53D02053BE53D2401F53D020587E50A
:10078E003D2401F53D0205D7E53D2401F53D7920D7
:10079E007418120083D9F90203E1E53B2405D4F560
:1007AE003BB4600D753B00E53C2401D4F53C0208DA
:1007BE0002B4610D753B01E53C2401D4F53C020801
:1007CE0002B4620D753B02E53C2401D4F53C0208EF
:1007DE0002B4630D753B03E53C2401D4F53C0208DD
:1007EE0002B4640D753B04E53C2401D4F53C0208CB
:1007FE0002020214E53CB4120DE503700675030106
:10080E00020214750300E53CB41305753C0180002B
:10081E000202147AA67943B2A678A6D8FED9FADADD
:10082E00F47A427938B2A678A6D8FED9FADAF4224A
:10083E007B027A83792AB2A678A6D8FED9FADAF4A0
:10084E00DBF0227ADC7932B2A678A6D8FED9FADAB3
:10085E00F4227AF6792DB2A678A6D8FED9FADAF471
:10086E00227AEA792FB2A678A6D8FED9FADAF4223D
:10087E007B027AA5791CB2A678A6D8FED9FADAF44C
:10088E00DBF0227B027AA57921B2A678A6D8FED912
:10089E00FADAF4DBF02230A5FD800530A4FDC2ADFE
:1008AE00753600850102853539853438853337C074
:1008BE00E07404141200BFD0E0C000A8381200C6C5
:1008CE00D000C0E07401141200BFD0E0C000A839FF
:1008DE001200C6D000C0E07407141200BFD0E0C0F2
:1008EE0000A8371200C6D00030A30CC0027A321214
:1008FE000039D00230A35220A20CC0027A3212006C
:10090E0039D00230A24620A10CC0027A3212003930
:10091E00D00230A13A20A00CC0027A32120039D097
:10092E000230A02EC0E07401141200C1D0E0C083CA
:10093E00C082C0E09000DC1200B4D0E0D082D08340
:10094E00E536B400107480801E020ADA020AF10243
:10095E000A5E0209E4B401047483800BB4020474C9
:10096E0086800474888000120083740012007E302A
:10097E00A40630A5330208BD30A4FD8502018539D9
:10098E0035853834853733C0E07401141200C1D078
:10099E00E0C083C082C0E09000DC1200B4D0E0D092
:1009AE0082D083D2AD0202DB30A5FD8502038539EC
:1009BE003C85383B85373AC0E07401141200C1D033
:1009CE00E0C083C082C0E09000DC1200B4D0E0D062
:1009DE0082D0830202DB30A0FDE536B40016E53985
:1009EE00B412077401F5390208BDE5392401D4F5B6
:1009FE00390208BDE536B40116E538B4590774005E
:100A0E00F5380208BDE5382401D4F5380208BDE5F5
:100A1E0036B40217E537B459087400D4F537020816
:100A2E00BDE5372401D4F5370208BD020AB27502BE
:100A3E0001C0E07409141200BFD0E0C083C082C0B0
:100A4E00E09000F81200B4D0E0D082D0830208BD4E
:100A5E0030A1FDE536B40018E539B400067539123B
:100A6E000208BDE5392499D4F5390208BD020A3CC5
:100A7E00E536B40115E538B400067538590208BDDF
:100A8E00E5382499D4F5380208BDE536B40215E5EB
:100A9E0037B400067537590208BDE5372499D4F5E9
:100AAE00370208BDE502B401C47400F502C0E0745B
:100ABE0009141200BFD0E0C083C082C0E09000FBDA
:100ACE001200B4D0E0D082D0830208BD30A3FDE581
:100ADE0036B403067536000208BDE5362401F53638
:100AEE000208BD30A2FDE536B400067536030208D5
:100AFE00BDE5369401F5360208BDC0E0740114124E
:100B0E0000BFD0E0C083C082C0E09000ED1200B400
:100B1E00D0E0D082D083C0E07407141200BFD0E0C2
:100B2E00C000A8331200C6D000C0E0740414120036
:100B3E00BFD0E0C000A8341200C6D000C0E07401DF
:100B4E00141200BFD0E0C000A8351200C6D000C0FD
:100B5E00E07409141200BFD0E0E5017014C083C028
:100B6E0082C0E09000FB1200B4D0E0D082D083802F
:100B7E001CC0E07409141200BFD0E0C083C082C054
:100B8E00E09000F81200B4D0E0D082D08322C0836F
:100B9E00C082C0E09000DC1200B4D0E0D082D083DE
:100BAE00C0027A32120039D002C0E0740114120071
:100BBE00C1D0E0C083C082C0E09001031200B4D067
:100BCE00E0D082D083C0027AFA120039D002C0027D
:100BDE007AFA120039D002C0E07401141200C1D0AA
:100BEE00E0C083C082C0E09000DC1200B4D0E0D040
:100BFE0082D083C0027A32120039D002748412007D
:100C0E0083740012007E740012007E740112007E46
:0B0C1E00747E12007E747F12007E22A4
:00000001FF
