:030000000201A357
:0100030032CA
:03000B0002011FD0
:0100130032BA
:01001B0032B2
:0100230032AA
:03002B000201418E
:10002E00C00078B10000D8FCD00022C000C0017919
:10003E002D78A6D8FED9FADAF6D001D00022D296C3
:10004E0012002EC29622A2E792B5A2E692B4A2E5C3
:10005E0092B3A2E492B212004C12002EA2E392B519
:10006E00A2E292B4A2E192B3A2E092B212004C22AA
:10007E00D294020054C294020054C296C2957433B4
:10008E0012008374331200837432120083742812A8
:10009E000083740C1200837401120083C0027A0272
:1000AE00120039D00222E493600612007EA380F67D
:1000BE002244404480020083C0E0E8C4540F443020
:1000CE0012007EE8540F443012007ED0E022202031
:1000DE0020202020202020202020202020200078DA
:1000EE00783A78783A7878787800616D00706D009B
:1000FE00307863350072656164792100E58954F0CA
:10010E004401F589758CEA758AE8D2A9D28CD2AFF2
:10011E0022C28C758CEA758AFCD28CB2B73275C845
:10012E000075CBA975CA9AE4F530F531D2ADD2CAB5
:10013E00D2AF22C2CFB2B6C0E0C0D00530E530702B
:10014E00020531E530B4E814E531B4030FD200B244
:10015E008EE4F530F531E5332401800302019ED49F
:10016E00F533E533B46029753300E5342401D4F555
:10017E0034B4601C753400E5352401D4F535B41261
:10018E0007E5017009750101B4130375350174009B
:10019E00D0D0D0E03275817F75C10012010A1201F4
:1001AE002C1200881202FD75330075345975351204
:1001BE00750100753A05753B59753C12750300C003
:1001CE00E07401141200BFD0E0C083C082C0E09082
:1001DE0000ED1200B4D0E0D082D083D20075320090
:1001EE0030A42C30A52C20C54AC0027A3212003918
:1001FE00D00220C53E30C5FDC28CE4F530F5317518
:10020E003300753459753512750100D28C80270272
:10021E00088B020886C0E07409141200C1D0E0C039
:10022E0083C082C0E09000F81200B4D0E0D082D03B
:10023E008380573000AAC200120AEAC0E07401148B
:10024E001200C1D0E0C083C082C0E09000ED120069
:10025E00B4D0E0D082D083E50370BAC0E074091444
:10026E001200C1D0E0C000A8031200C6D000C0E04A
:10027E007409141200C1D0E0C083C082C0E09000A7
:10028E00FB1200B4D0E0D082D083C0E07407141209
:10029E0000C1D0E0C000A83A1200C6D000C0E07481
:1002AE0001141200C1D0E0C000A83C1200C6D0005C
:1002BE00C0E07404141200C1D0E0C000A83B1200CC
:1002CE00C6D000E501C0E0740B141200C1D0E09559
:1002DE00037019E535953C7013E534953B700DE5CB
:1002EE0033953A70077400F53E0203530201EE7423
:1002FE0040120083740012007E740412007E740497
:10030E0012007E740412007E741512007E740E129A
:10031E00007E740412007E740012007E74001200BF
:10032E007E740412007E740E12007E741512007E0E
:10033E00740412007E740412007E740412007E7423
:10034E000012007E22E53E2401F53EC0E0740F143B
:10035E001200C1D0E0C000A83E1200C6D000C002FC
:10036E007A96120039D0021206727400F53DC0E082
:10037E007401141200BFD0E0C083C082C0E09000B0
:10038E00DC1200B4D0E0D082D083C0E0740114122D
:10039E0000C1D0E0C083C082C0E09000DC1200B487
:1003AE00D0E0D082D083C0027A96120039D00212E9
:1003BE000B7E0204057403B53D030201EE7404B511
:1003CE003D030201EE7405B53D030201EEC0E0747B
:1003DE000F141200BFD0E0C000A83D1200C6D0001E
:1003EE00C0027A96120039D0027403B53E0302079A
:1003FE008A02035302078A120873C0027A3212006D
:10040E0039D002120873C0027A32120039D00212A9
:10041E0008737418120083120820C0027A32120078
:10042E0039D002120873C0027A32120039D0021289
:10043E000860C0027A32120039D002120811741804
:10044E00120083120820C0027A32120039D0021232
:10045E000811C0027A32120039D002120803C0020B
:10046E007A32120039D00212083374181200831235
:10047E000842C0027A32120039D002120851C0026C
:10048E007A32120039D002120833C0027A321200C8
:10049E0039D00212081174181200830204B2020736
:1004AE005402075DC0027A32120039D0021208736C
:1004BE00C0027A32120039D00212087320A10CC089
:1004CE00027A32120039D00230A1D3120873C00260
:1004DE007A32120039D002120820C0027A3212008B
:1004EE0039D0027418120083C0027A32120039D049
:1004FE0002120873C0027A32120039D0021208605A
:10050E0020A10CC0027A32120039D00230A1921210
:10051E000811C0027A32120039D002120820C0022D
:10052E007A32120039D0027418120083C0027A3265
:10053E00120039D002800602076602076F120811F8
:10054E00C0027A32120039D00212080320A00CC069
:10055E00027A32120039D00230A0DC120833C00207
:10056E007A32120039D002120842C0027A321200D8
:10057E0039D0027418120083C0027A32120039D0B8
:10058E0002120851C0027A32120039D00212083318
:10059E00C0027A32120039D00212081120A30CC008
:1005AE00027A32120039D00230A38F120873C002C1
:1005BE007A32120039D002C0027A32120039D002D9
:1005CE007418120083120873C0027A32120039D0E6
:1005DE0002120873C0027A32120039D002120820B9
:1005EE00C0027A32120039D00220A215C0027A322D
:1005FE00120039D002C0027A32120039D00230A273
:10060E003C120811C0027A32120039D002120803CD
:10061E00C0027A32120039D002120833C0027A3286
:10062E00120039D002120842C0027A32120039D0BA
:10063E000279207418120083D9F90203C3C0027A1A
:10064E0032120039D002C0027A32120039D002C002
:10065E00027A32120039D002C0027A32120039D038
:10066E0002020778120873C0027A32120039D002E1
:10067E00120AEA120873C0027A32120039D002123C
:10068E000AEA120873C0027A32120039D002120A34
:10069E00EA120820C0027A32120039D002120AEA97
:1006AE00120873C0027A32120039D002120AEA120C
:1006BE000860C0027A32120039D002120AEA120819
:1006CE0011C0027A32120039D002120AEA12082040
:1006DE00C0027A32120039D002120AEA120811C090
:1006EE00027A32120039D002120AEA120803C0024C
:1006FE007A32120039D002120AEA120833C0027A94
:10070E0032120039D002120AEA120842C0027A32BC
:10071E00120039D002120AEA120851C0027A3212BD
:10072E000039D002120AEA120833C0027A321200DD
:10073E0039D002120AEA120811C0027A32120039B6
:10074E00D002120AEA22E53D2401F53D0204D9E564
:10075E003D2401F53D02051DE53D2401F53D020553
:10076E0069E53D2401F53D0205B9E53D2401F53D60
:10077E0079207418120083D9F90203C3E53B2405CE
:10078E00D4F53BB4600D753B00E53C2401D4F53C3B
:10079E000207E4B4610D753B01E53C2401D4F53C40
:1007AE000207E4B4620D753B02E53C2401D4F53C2E
:1007BE000207E4B4630D753B03E53C2401D4F53C1C
:1007CE000207E4B4640D753B04E53C2401D4F53C0A
:1007DE000207E40201EEE53CB4120DE50370067566
:1007EE0003010201EE750300E53CB41305753C01EF
:1007FE0080000201EE7AA67943B2A678A6D8FED979
:10080E00FADAF47A427938B2A678A6D8FED9FADAAC
:10081E00F4227B027A83792AB2A678A6D8FED9FA78
:10082E00DAF4DBF0227ADC7932B2A678A6D8FED9D9
:10083E00FADAF4227AF6792DB2A678A6D8FED9FA8B
:10084E00DAF4227AEA792FB2A678A6D8FED9FADAA5
:10085E00F4227B027AA5791CB2A678A6D8FED9FA24
:10086E00DAF4DBF0227B027AA57921B2A678A6D83B
:10087E00FED9FADAF4DBF02230A5FD800530A4FDB6
:10088E00C2AD75360085010285353985343885331C
:10089E0037C0E07404141200BFD0E0C000A83812B4
:1008AE0000C6D000C0E07401141200BFD0E0C0003A
:1008BE00A8391200C6D000C0E07407141200BFD0D1
:1008CE00E0C000A8371200C6D00030A30CC0027AD8
:1008DE0032120039D00230A35220A20CC0027A325A
:1008EE00120039D00230A24620A10CC0027A321278
:1008FE000039D00230A13A20A00CC0027A32120088
:10090E0039D00230A02EC0E07401141200C1D0E024
:10091E00C083C082C0E09000DC1200B4D0E0D08270
:10092E00D083E536B400107480801E020ABC020A21
:10093E00D3020A400209C6B401047483800BB402C8
:10094E000474868004748880001200837400120080
:10095E007E30A40630A53302089F30A4FD85020127
:10096E00853935853834853733C0E074011412006B
:10097E00C1D0E0C083C082C0E09000DC1200B4D0D1
:10098E00E0D082D083D2AD0201EE30A5FD85020308
:10099E0085393C85383B85373AC0E0740114120026
:1009AE00C1D0E0C083C082C0E09000DC1200B4D0A1
:1009BE00E0D082D0830201EE30A0FDE536B4001601
:1009CE00E539B412077401F53902089FE53924019F
:1009DE00D4F53902089FE536B40116E538B4590747
:1009EE007400F53802089FE5382401D4F538020862
:1009FE009FE536B40217E537B459087400D4F537BD
:100A0E0002089FE5372401D4F53702089F020A94A5
:100A1E00750201C0E07409141200BFD0E0C083C09B
:100A2E0082C0E09000F81200B4D0E0D082D08302F1
:100A3E00089F30A1FDE536B40018E539B4000675FF
:100A4E00391202089FE5392499D4F53902089F021C
:100A5E000A1EE536B40115E538B40006753859029C
:100A6E00089FE5382499D4F53802089FE536B4027C
:100A7E0015E537B4000675375902089FE5372499F6
:100A8E00D4F53702089FE502B401C47400F502C024
:100A9E00E07409141200BFD0E0C083C082C0E090A1
:100AAE0000FB1200B4D0E0D082D08302089F30A3A6
:100ABE00FDE536B4030675360002089FE5362401BF
:100ACE00F53602089F30A2FDE536B40006753603F2
:100ADE0002089FE5369401F53602089FC0E07401C6
:100AEE00141200BFD0E0C083C082C0E09000ED12AF
:100AFE0000B4D0E0D082D083C0E07407141200BFDF
:100B0E00D0E0C000A8331200C6D000C0E0740414B8
:100B1E001200BFD0E0C000A8341200C6D000C0E062
:100B2E007401141200BFD0E0C000A8351200C6D068
:100B3E0000C0E07409141200BFD0E0E5017014C0CB
:100B4E0083C082C0E09000FB1200B4D0E0D082D00F
:100B5E0083801CC0E07409141200BFD0E0C083C0B3
:100B6E0082C0E09000F81200B4D0E0D082D0832290
:100B7E00C083C082C0E09000DC1200B4D0E0D0820E
:100B8E00D083C0027A32120039D002C0E074011450
:100B9E001200C1D0E0C083C082C0E09001031200F9
:100BAE00B4D0E0D082D083C0027AFA120039D002DB
:100BBE00C0027AFA120039D002C0E0740114120099
:100BCE00C1D0E0C083C082C0E09000DC1200B4D07F
:100BDE00E0D082D083C0027A32120039D0027484FF
:100BEE00120083740012007E740012007E740112D3
:0D0BFE00007E747E12007E747F12007E2245
:00000001FF
